{
  "contractName": "Hippodrome",
  "abi": [
    {
      "constant": false,
      "inputs": [
        {
          "name": "_maxPlayers",
          "type": "uint256"
        }
      ],
      "name": "setMaxPlayers",
      "outputs": [],
      "payable": false,
      "stateMutability": "nonpayable",
      "type": "function"
    },
    {
      "constant": true,
      "inputs": [],
      "name": "numberOfBets",
      "outputs": [
        {
          "name": "",
          "type": "uint256"
        }
      ],
      "payable": false,
      "stateMutability": "view",
      "type": "function"
    },
    {
      "constant": true,
      "inputs": [
        {
          "name": "player",
          "type": "address"
        }
      ],
      "name": "checkPlayerExists",
      "outputs": [
        {
          "name": "",
          "type": "bool"
        }
      ],
      "payable": false,
      "stateMutability": "view",
      "type": "function"
    },
    {
      "constant": false,
      "inputs": [],
      "name": "kill",
      "outputs": [],
      "payable": false,
      "stateMutability": "nonpayable",
      "type": "function"
    },
    {
      "constant": false,
      "inputs": [],
      "name": "resetData",
      "outputs": [],
      "payable": false,
      "stateMutability": "nonpayable",
      "type": "function"
    },
    {
      "constant": true,
      "inputs": [],
      "name": "maxPlayers",
      "outputs": [
        {
          "name": "",
          "type": "uint256"
        }
      ],
      "payable": false,
      "stateMutability": "view",
      "type": "function"
    },
    {
      "constant": false,
      "inputs": [
        {
          "name": "horseNumberWinner",
          "type": "uint256"
        }
      ],
      "name": "distributePrizes",
      "outputs": [],
      "payable": false,
      "stateMutability": "nonpayable",
      "type": "function"
    },
    {
      "constant": false,
      "inputs": [
        {
          "name": "horseNumber",
          "type": "uint256"
        }
      ],
      "name": "bet",
      "outputs": [],
      "payable": true,
      "stateMutability": "payable",
      "type": "function"
    },
    {
      "constant": true,
      "inputs": [],
      "name": "getMaxPlayers",
      "outputs": [
        {
          "name": "",
          "type": "uint256"
        }
      ],
      "payable": false,
      "stateMutability": "view",
      "type": "function"
    },
    {
      "constant": true,
      "inputs": [],
      "name": "minimumBet",
      "outputs": [
        {
          "name": "",
          "type": "uint256"
        }
      ],
      "payable": false,
      "stateMutability": "view",
      "type": "function"
    },
    {
      "constant": false,
      "inputs": [],
      "name": "generateHorseWinner",
      "outputs": [],
      "payable": false,
      "stateMutability": "nonpayable",
      "type": "function"
    },
    {
      "constant": true,
      "inputs": [],
      "name": "raceId",
      "outputs": [
        {
          "name": "",
          "type": "uint256"
        }
      ],
      "payable": false,
      "stateMutability": "view",
      "type": "function"
    },
    {
      "constant": true,
      "inputs": [],
      "name": "totalBet",
      "outputs": [
        {
          "name": "",
          "type": "uint256"
        }
      ],
      "payable": false,
      "stateMutability": "view",
      "type": "function"
    },
    {
      "inputs": [
        {
          "name": "_minimumBet",
          "type": "uint256"
        }
      ],
      "payable": false,
      "stateMutability": "nonpayable",
      "type": "constructor"
    },
    {
      "payable": true,
      "stateMutability": "payable",
      "type": "fallback"
    },
    {
      "anonymous": false,
      "inputs": [
        {
          "indexed": false,
          "name": "_raceId",
          "type": "uint256"
        },
        {
          "indexed": false,
          "name": "_minimumBet",
          "type": "uint256"
        },
        {
          "indexed": false,
          "name": "_totalBet",
          "type": "uint256"
        },
        {
          "indexed": false,
          "name": "_numberOfBets",
          "type": "uint256"
        },
        {
          "indexed": false,
          "name": "_maxPlayers",
          "type": "uint256"
        }
      ],
      "name": "HippoEvent",
      "type": "event"
    },
    {
      "anonymous": false,
      "inputs": [
        {
          "indexed": false,
          "name": "horseWinner",
          "type": "uint256"
        },
        {
          "indexed": false,
          "name": "raceId",
          "type": "uint256"
        }
      ],
      "name": "results",
      "type": "event"
    }
  ],
  "bytecode": "0x60606040526000600255600a600655341561001957600080fd5b604051602080610b3c83398101604052808051906020019091905050336000806101000a81548173ffffffffffffffffffffffffffffffffffffffff021916908373ffffffffffffffffffffffffffffffffffffffff16021790555033600160006101000a81548173ffffffffffffffffffffffffffffffffffffffff021916908373ffffffffffffffffffffffffffffffffffffffff16021790555060008111156100c757806003819055505b50610a65806100d76000396000f3006060604052600436106100c5576000357c0100000000000000000000000000000000000000000000000000000000900463ffffffff168063288dee3b146100c75780632ca8c6d3146100ea5780634081d9161461011357806341c0e1b514610164578063478c4e0e146101795780634c2412a21461018e5780636ca3fc3b146101b75780637365870b146101da5780638cbd9eb8146101f2578063c38a8afd1461021b578063ebca8a8e14610244578063ed3a865e14610259578063fe5e185314610282575b005b34156100d257600080fd5b6100e860048080359060200190919050506102ab565b005b34156100f557600080fd5b6100fd610371565b6040518082815260200191505060405180910390f35b341561011e57600080fd5b61014a600480803573ffffffffffffffffffffffffffffffffffffffff16906020019091905050610377565b604051808215151515815260200191505060405180910390f35b341561016f57600080fd5b61017761041b565b005b341561018457600080fd5b61018c6104b0565b005b341561019957600080fd5b6101a16104d2565b6040518082815260200191505060405180910390f35b34156101c257600080fd5b6101d860048080359060200190919050506104d8565b005b6101f0600480803590602001909190505061076c565b005b34156101fd57600080fd5b610205610941565b6040518082815260200191505060405180910390f35b341561022657600080fd5b61022e61094b565b6040518082815260200191505060405180910390f35b341561024f57600080fd5b610257610951565b005b341561026457600080fd5b61026c610971565b6040518082815260200191505060405180910390f35b341561028d57600080fd5b610295610977565b6040518082815260200191505060405180910390f35b6000809054906101000a900473ffffffffffffffffffffffffffffffffffffffff1673ffffffffffffffffffffffffffffffffffffffff163373ffffffffffffffffffffffffffffffffffffffff1614151561030657600080fd5b806006819055507fba1e7773bcbcb5b2d8bf4420ab43025eb8d3e1689594eaa20b564738ac0887af600254600354600454600554600654604051808681526020018581526020018481526020018381526020018281526020019550505050505060405180910390a150565b60055481565b600080600090505b600780549050811015610410578273ffffffffffffffffffffffffffffffffffffffff166007828154811015156103b257fe5b906000526020600020900160009054906101000a900473ffffffffffffffffffffffffffffffffffffffff1673ffffffffffffffffffffffffffffffffffffffff1614156104035760019150610415565b808060010191505061037f565b600091505b50919050565b6000809054906101000a900473ffffffffffffffffffffffffffffffffffffffff1673ffffffffffffffffffffffffffffffffffffffff163373ffffffffffffffffffffffffffffffffffffffff1614151561047657600080fd5b6000809054906101000a900473ffffffffffffffffffffffffffffffffffffffff1673ffffffffffffffffffffffffffffffffffffffff16ff5b60006007816104bf919061097d565b5060006004819055506000600581905550565b60065481565b6104e06109a9565b6000806000806000809450600093505b60078054905084101561063a5760078481548110151561050c57fe5b906000526020600020900160009054906101000a900473ffffffffffffffffffffffffffffffffffffffff16925086600860008573ffffffffffffffffffffffffffffffffffffffff1673ffffffffffffffffffffffffffffffffffffffff1681526020019081526020016000206001015414156105db5782868660648110151561059357fe5b602002019073ffffffffffffffffffffffffffffffffffffffff16908173ffffffffffffffffffffffffffffffffffffffff168152505084806001019550506105da6104b0565b5b600860008473ffffffffffffffffffffffffffffffffffffffff1673ffffffffffffffffffffffffffffffffffffffff1681526020019081526020016000206000808201600090556001820160009055505083806001019450506104f0565b6000600781610649919061097d565b50606460045481151561065857fe5b049150600090505b8481101561071057600073ffffffffffffffffffffffffffffffffffffffff16868260648110151561068e57fe5b602002015173ffffffffffffffffffffffffffffffffffffffff161415156107035785816064811015156106be57fe5b602002015173ffffffffffffffffffffffffffffffffffffffff166108fc839081150290604051600060405180830381858888f19350505050151561070257600080fd5b5b8080600101915050610660565b7fd70c6f4ebc002dd42d07dc6cd487e343c13201a39bc52d9740d921ac4bdbcaf987600254604051808381526020018281526020019250505060405180910390a160026000815480929190600101919050555050505050505050565b6000151561077933610377565b151514151561078757600080fd5b60018110158015610799575060058111155b15156107a457600080fd5b60035434101515156107b557600080fd5b34600860003373ffffffffffffffffffffffffffffffffffffffff1673ffffffffffffffffffffffffffffffffffffffff1681526020019081526020016000206000018190555080600860003373ffffffffffffffffffffffffffffffffffffffff1673ffffffffffffffffffffffffffffffffffffffff1681526020019081526020016000206001018190555060016005600082825401925050819055506007805480600101828161086891906109e8565b9160005260206000209001600033909190916101000a81548173ffffffffffffffffffffffffffffffffffffffff021916908373ffffffffffffffffffffffffffffffffffffffff16021790555050346004600082825401925050819055506006546005541015156108dd576108dc610951565b5b7fba1e7773bcbcb5b2d8bf4420ab43025eb8d3e1689594eaa20b564738ac0887af600254600354600454600554600654604051808681526020018581526020018481526020018381526020018281526020019550505050505060405180910390a150565b6000600654905090565b60035481565b6000600160054381151561096157fe5b0601905061096e816104d8565b50565b60025481565b60045481565b8154818355818115116109a4578183600052602060002091820191016109a39190610a14565b5b505050565b610c80604051908101604052806064905b600073ffffffffffffffffffffffffffffffffffffffff168152602001906001900390816109ba5790505090565b815481835581811511610a0f57818360005260206000209182019101610a0e9190610a14565b5b505050565b610a3691905b80821115610a32576000816000905550600101610a1a565b5090565b905600a165627a7a72305820e45d2025a3f223ecc34db2f49d34320ffbe42034dbd7135e622e8042bedd24c20029",
  "source": "pragma solidity ^0.4.18;\r\n\r\ncontract Owned {\r\n    address owner;\r\n\r\n    function Owned() public {\r\n        owner = msg.sender;\r\n    }\r\n\r\n    modifier onlyOwner {\r\n        require(msg.sender == owner);\r\n        _;\r\n    }\r\n    \r\n  function kill() onlyOwner {\r\n         selfdestruct(owner);\r\n   }\r\n}\r\n\r\ncontract Hippodrome is Owned {\r\n\r\n   address owner;\r\n\r\nuint public raceId = 0;\r\nuint public minimumBet;\r\nuint public totalBet;\r\nuint public numberOfBets;\r\nuint public maxPlayers = 10;\r\naddress[] players;\r\n\r\nstruct Player {\r\n   uint amountBet;\r\n   uint horseSelected;\r\n}\r\n\r\nmapping(address => Player) playerInfo;\r\n\r\n\r\n\r\nfunction Hippodrome(uint _minimumBet) {\r\n   owner = msg.sender;\r\n   if (_minimumBet > 0 ) \r\n   minimumBet = _minimumBet;\r\n}\r\n\r\nevent HippoEvent(\r\n    uint _raceId,\r\n    uint _minimumBet,\r\n    uint _totalBet,\r\n    uint _numberOfBets,\r\n    uint _maxPlayers\r\n    );\r\n    \r\nevent results (\r\n    uint horseWinner,\r\n    uint raceId\r\n    );\r\n\r\nfunction setMaxPlayers(uint _maxPlayers) onlyOwner public {\r\n       maxPlayers = _maxPlayers;\r\n       HippoEvent(raceId, minimumBet, totalBet, numberOfBets, maxPlayers);\r\n   }\r\nfunction getMaxPlayers() public view returns (uint) {\r\n    return maxPlayers;\r\n}\r\n\r\n// To bet for a horse between 1 and 5 both inclusive\r\nfunction bet(uint horseNumber) payable {\r\n    //if player has made his bet \r\n   require(checkPlayerExists(msg.sender) == false);\r\n\r\n   require(horseNumber >= 1 && horseNumber <= 5);\r\n   require(msg.value >= minimumBet);\r\n   playerInfo[msg.sender].amountBet = msg.value;\r\n   playerInfo[msg.sender].horseSelected = horseNumber;\r\n   numberOfBets += 1;\r\n   players.push(msg.sender);\r\n   totalBet += msg.value;\r\n   if (numberOfBets >= maxPlayers)\r\n   generateHorseWinner();\r\n   HippoEvent(raceId, minimumBet, totalBet, numberOfBets, maxPlayers);\r\n}\r\n\r\nfunction checkPlayerExists(address player) constant returns(bool) {\r\n   for (uint i = 0; i < players.length; i++) {\r\n      if (players[i] == player) \r\n      return true;\r\n   }\r\n   return false;\r\n}\r\n\r\n// Generates a horseNumber between 1 and 5\r\nfunction generateHorseWinner() {\r\n   uint horseNumberGenerated = block.number % 5 + 1; // This isn't secure\r\n   distributePrizes(horseNumberGenerated);\r\n}\r\n\r\n// Sends the corresponding ether to each winner depending on the total bets\r\nfunction distributePrizes(uint horseNumberWinner) {\r\n   address[100] memory winners; // We have to create a temporary in memory array with fixed size\r\n   uint count = 0; // This is the count for the array of winners\r\n   for (uint i = 0; i < players.length; i++) {\r\n      address playerAddress = players[i];\r\n      if (playerInfo[playerAddress].horseSelected == horseNumberWinner) {\r\n         winners[count] = playerAddress;\r\n         count++;\r\n         resetData();\r\n      }\r\n      delete playerInfo[playerAddress]; // Delete all the players\r\n   }\r\n   players.length = 0; // Delete all the players array\r\n   uint winnerEtherAmount = totalBet / winners.length; // How much each winner gets\r\n   for (uint j = 0; j < count; j++) {\r\n      if(winners[j] != address(0)) // Check at least one winner exists\r\n         winners[j].transfer(winnerEtherAmount);\r\n   }\r\n   results (horseNumberWinner, raceId);\r\n   raceId++;\r\n}\r\n\r\nfunction resetData(){\r\n   players.length = 0; // Delete all the players array\r\n   totalBet = 0;\r\n   numberOfBets = 0;\r\n}\r\n// Fallback function in case someone sends ether to the contract so it doesn't get lost\r\nfunction() payable {}\r\n\r\n}",
  "sourcePath": "F:\\Dropbox\\Source\\Eth\\Hippodrome-Dapp\\contracts\\Hippodrome.sol",
  "compiler": {
    "name": "solc",
    "version": "0.4.18+commit.9cf6e910.Emscripten.clang"
  },
  "schemaVersion": "1.0.1",
  "updatedAt": "2018-01-06T13:54:30.916Z"
}