{
  "contractName": "Owned",
  "abi": [
    {
      "constant": false,
      "inputs": [],
      "name": "kill",
      "outputs": [],
      "payable": false,
      "stateMutability": "nonpayable",
      "type": "function"
    },
    {
      "inputs": [],
      "payable": false,
      "stateMutability": "nonpayable",
      "type": "constructor"
    }
  ],
  "bytecode": "0x6060604052341561000f57600080fd5b336000806101000a81548173ffffffffffffffffffffffffffffffffffffffff021916908373ffffffffffffffffffffffffffffffffffffffff1602179055506101168061005e6000396000f300606060405260043610603f576000357c0100000000000000000000000000000000000000000000000000000000900463ffffffff16806341c0e1b5146044575b600080fd5b3415604e57600080fd5b60546056565b005b6000809054906101000a900473ffffffffffffffffffffffffffffffffffffffff1673ffffffffffffffffffffffffffffffffffffffff163373ffffffffffffffffffffffffffffffffffffffff1614151560b057600080fd5b6000809054906101000a900473ffffffffffffffffffffffffffffffffffffffff1673ffffffffffffffffffffffffffffffffffffffff16ff00a165627a7a723058200275e88cb270ffea3e44f72c39a565679b7790b90d4f5e6010366ceb4c908ca50029",
  "source": "pragma solidity ^0.4.18;\r\n\r\ncontract Owned {\r\n    address owner;\r\n\r\n    function Owned() public {\r\n        owner = msg.sender;\r\n    }\r\n\r\n    modifier onlyOwner {\r\n        require(msg.sender == owner);\r\n        _;\r\n    }\r\n    \r\n  function kill() onlyOwner {\r\n         selfdestruct(owner);\r\n   }\r\n}\r\n\r\ncontract Hippodrome is Owned {\r\n\r\n   address owner;\r\n\r\nuint public raceId = 0;\r\nuint public minimumBet = 100000000;\r\nuint public totalBet;\r\nuint public numberOfBets;\r\nuint public maxPlayers = 10;\r\naddress[] players;\r\n\r\nstruct Player {\r\n   uint betAmount;\r\n   uint horseSelected;\r\n}\r\n\r\nmapping(address => Player) playerInfo;\r\n\r\n\r\n\r\nfunction Hippodrome(uint _minimumBet) {\r\n   owner = msg.sender;\r\n   if (_minimumBet > 0 ) \r\n   minimumBet = _minimumBet;\r\n}\r\n\r\nevent HippoEvent(\r\n    uint _raceId,\r\n    uint _minimumBet,\r\n    uint _totalBet,\r\n    uint _numberOfBets,\r\n    uint _maxPlayers\r\n    );\r\n    \r\nevent results (\r\n    uint horseWinner,\r\n    uint raceId\r\n    );\r\n\r\nfunction info() public constant {\r\n    HippoEvent(raceId, minimumBet, totalBet, numberOfBets, maxPlayers);\r\n}\r\n\r\nfunction setMaxPlayers(uint _maxPlayers) onlyOwner public {\r\n       maxPlayers = _maxPlayers;\r\n       HippoEvent(raceId, minimumBet, totalBet, numberOfBets, maxPlayers);\r\n   }\r\nfunction getMaxPlayers() public view returns (uint) {\r\n    return maxPlayers;\r\n}\r\n\r\n// To bet for a horse between 1 and 5 both inclusive\r\nfunction bet(uint horseNumber) payable {\r\n    //if player has made his bet \r\n   require(checkPlayerExists(msg.sender) == false);\r\n\r\n   require(horseNumber >= 1 && horseNumber <= 5);\r\n   require(msg.value >= minimumBet);\r\n   playerInfo[msg.sender].betAmount = msg.value;\r\n   playerInfo[msg.sender].horseSelected = horseNumber;\r\n   numberOfBets += 1;\r\n   players.push(msg.sender);\r\n   totalBet += msg.value;\r\n   if (numberOfBets >= maxPlayers)\r\n   generateHorseWinner();\r\n   HippoEvent(raceId, minimumBet, totalBet, numberOfBets, maxPlayers);\r\n}\r\n\r\nfunction checkPlayerExists(address player) constant returns(bool) {\r\n   for (uint i = 0; i < players.length; i++) {\r\n      if (players[i] == player) \r\n      return true;\r\n   }\r\n   return false;\r\n}\r\n\r\n// Generates a horseNumber between 1 and 5\r\nfunction generateHorseWinner() {\r\n   uint horseNumberGenerated = block.number % 5 + 1; // This isn't secure\r\n   distributePrizes(horseNumberGenerated);\r\n}\r\n\r\n// Sends the corresponding ether to each winner depending on the total bets\r\nfunction distributePrizes(uint horseNumberWinner) {\r\n   address[100] memory winners; // We have to create a temporary in memory array with fixed size\r\n   uint count = 0; // This is the count for the array of winners\r\n   for (uint i = 0; i < players.length; i++) {\r\n      address playerAddress = players[i];\r\n      if (playerInfo[playerAddress].horseSelected == horseNumberWinner) {\r\n         winners[count] = playerAddress;\r\n         count++;\r\n         resetData();\r\n      }\r\n      delete playerInfo[playerAddress]; // Delete all the players\r\n   }\r\n   players.length = 0; // Delete all the players array\r\n   uint winnerEtherAmount = totalBet / winners.length; // How much each winner gets\r\n   for (uint j = 0; j < count; j++) {\r\n      if(winners[j] != address(0)) // Check at least one winner exists\r\n         winners[j].transfer(winnerEtherAmount);\r\n   }\r\n   results (horseNumberWinner, raceId);\r\n   raceId++;\r\n}\r\n\r\nfunction resetData(){\r\n   players.length = 0; // Delete all the players array\r\n   totalBet = 0;\r\n   numberOfBets = 0;\r\n}\r\n// Fallback function in case someone sends ether to the contract so it doesn't get lost\r\nfunction() payable {}\r\n\r\n}",
  "sourcePath": "F:\\Dropbox\\Source\\Eth\\Hippodrome-Dapp\\contracts\\Hippodrome.sol",
  "compiler": {
    "name": "solc",
    "version": "0.4.18+commit.9cf6e910.Emscripten.clang"
  },
  "schemaVersion": "1.0.1",
  "updatedAt": "2018-01-06T21:09:15.302Z"
}